:100000000C949E000C94C6000C94C6000C94C60080
:100010000C94C6000C94C6000C94C6000C94C60048
:100020000C94C6000C94C6000C94C6000C94C60038
:100030000C94C6000C94C6000C94C6000C94C60028
:100040000C94C4010C94C6000C94B6020C94920259
:100050000C940E020C94C6000C94C6000C94C600BE
:100060000C94C6000C94C600446F6E650044617425
:100070006100427265616B0049646C650053746194
:10008000727475700044617461206C656E67746889
:1000900020746F6F206C6F6E6720666F72207374B0
:1000A00061727420616464726573732C206461747E
:1000B000612077696C6C206265207472756E636173
:1000C0007465640000000000240027002A0000007E
:1000D0000000250028002B00040404040404040488
:1000E00002020202020203030303030301020408E3
:1000F0001020408001020408102001020408102092
:1001000000000008000201000003040700000000D6
:10011000000000004661696C656420746F206265B0
:1001200067696E20444D583A20416C72656164796C
:100130002052756E6E696E6700007D0411241FBE2B
:10014000CFEFD8E0DEBFCDBF23E0AEE0B1E001C02D
:100150001D92A733B207E1F711E0A0E0B1E0EAEBAE
:10016000FDE002C005900D92AE30B107D9F710E066
:10017000CEE9D0E004C02197FE010E94E304CD390E
:10018000D107C9F70E9434030C94DB060C940000DD
:10019000DC01ED91FC910190F081E02D6AE0099481
:1001A000EF92FF920F931F93CF93DF938C017B010C
:1001B000D0E0C0E0F701EC0FFD1F6491662361F011
:1001C000D801ED91FC910190F081E02DC8010995D5
:1001D000892B11F02196EECFCE01DF91CF911F91A7
:1001E0000F91FF90EF9008950F931F93CF93DF939C
:1001F000EC0188819981009759F02A813B8126176B
:10020000370730F081E0DF91CF911F910F91089572
:100210008B016F5F7F4F0E940E06009759F0998304
:1002200088831B830A832C813D81232B59F7FC0192
:100230001082E8CF80E0E7CFCF93DF93EC01888195
:100240009981009711F00E948505198218821D82FC
:100250001C821B821A82DF91CF910895EF92FF9248
:100260000F931F93CF93DF93EC018B016115710501
:1002700051F0CB010E94A3047C01BC01CE010E947D
:10028000F40081110BC0CE010E941C01CE01DF9150
:10029000CF911F910F91FF90EF900895FD82EC8216
:1002A000B801888199810E949C04F0CFEF92FF925F
:1002B0000F931F93CF93DF9300D000D000D0CDB722
:1002C000DEB77C018B011A8219821C821B821E827E
:1002D0001D8270E060E0CE0101960E94F400811161
:1002E00035C0CE0101960E941C01D70112968D9156
:1002F0009C918230910509F441C088F50097D9F1AD
:1003000068E770E0019791F14D815E8169817A81A2
:10031000D801ED91FC910280F381E02DC80109958F
:100320000D811E8189819A81009711F00E948505B7
:10033000C80126960FB6F894DEBF0FBECDBFDF9181
:10034000CF911F910F91FF90EF9008951E821D8213
:100350006CE071E089819A810E94D406C6CF833017
:10036000910579F068E670E0049771F6CE01019688
:100370000E942E01C9CF6DE770E0F8CF62E770E010
:10038000F5CF6DE670E0F2CF1F920F920FB60F928D
:1003900011242F933F938F939F93AF93BF9380919B
:1003A0002F0390913003A0913103B091320330912B
:1003B0002E0323E0230F2D3758F50196A11DB11D03
:1003C00020932E0380932F0390933003A093310347
:1003D000B093320380912A0390912B03A0912C03B8
:1003E000B0912D030196A11DB11D80932A03909316
:1003F0002B03A0932C03B0932D03BF91AF919F913A
:100400008F913F912F910F900FBE0F901F901895D5
:1004100026E8230F0296A11DB11DD2CF1F920F9285
:100420000FB60F9211242F933F938F939F93AF9307
:10043000BF93EF93FF93E0910E03F0910F03868536
:1004400097852481358122303105B1F4811522E070
:10045000920794F01092C50089E08093C40088E46C
:100460008093C1008EE28093C2001092C6008FEF8D
:100470009FEF9787868712C08F3F9807E1F410920D
:10048000C50083E08093C40088E28093C1008EE0C1
:100490008093C2001092C60017861686FF91EF91D6
:1004A000BF91AF919F918F913F912F910F900FBE70
:1004B0000F901F9018952485358582179307B4F403
:1004C000228533858217930734F41092C6008685FF
:1004D00097850196CECF821B930B20813181820FAD
:1004E000931FDC018C918093C600F1CF1092C50060
:1004F00083E08093C40088E48093C1008EE0809301
:10050000C200A685B785828593859D01281B390B7E
:10051000A081B181A20FB31F8C918093C60080E0AF
:1005200092E0A7CF1F920F920FB60F9211242F9334
:100530003F934F935F936F937F938F939F93AF936B
:10054000BF93EF93FF930E940E02FF91EF91BF9133
:10055000AF919F918F917F916F915F914F913F915B
:100560002F910F900FBE0F901F9018951F920F9212
:100570000FB60F9211242F933F934F936F937F9356
:100580008F939F93AF93BF93EF93FF932091C000FE
:100590004091C600E0910E03F0910F038689978980
:1005A000009729F481E090E0978B868B0CC024FFA4
:1005B0001AC082E090E0978B868B17861686868914
:1005C0009789049779F3FF91EF91BF91AF919F9134
:1005D0008F917F916F914F913F912F910F900FBE0F
:1005E0000F901F90189582309105B1F4411137C0DA
:1005F00083E090E0978B868B2FB7F89480912F0340
:1006000090913003A0913103B09132032FBF808BC2
:10061000918BA28BB38BD1CF039789F68685978573
:1006200022853385821793078CF06485758568175A
:10063000790764F0821B930BA081B181A80FB91FC9
:100640002C91421719F021E0208F4C9386859785D5
:10065000019697878687811592400CF4B0CF84E08D
:1006600090E0978B868BABCF789484B5826084BD05
:1006700084B5816084BD85B5826085BD85B58160A6
:1006800085BD80916E00816080936E001092810024
:1006900080918100826080938100809181008160DF
:1006A00080938100809180008160809380008091A0
:1006B000B10084608093B1008091B000816080932C
:1006C000B00080917A00846080937A0080917A00F3
:1006D000826080937A0080917A00816080937A00B2
:1006E00080917A00806880937A001092C100809196
:1006F00010038823C9F0809113039091140300978D
:1007000021F064E171E00E94D00080911303909188
:100710001403009711F00E94C800C0E0D0E02097B9
:10072000F1F30E940000FBCF10921C0310921B03F8
:100730008091170390911803019790931E03809363
:100740001D0381159240C4F080911303909114030E
:10075000009721F065E870E00E94D00080911303BB
:1007600090911403009711F00E94C8008FEF91E060
:1007700090931E0380931D0381E090E090931603F5
:10078000809315038093100381E193E090930F030E
:1007900080930E03109228031092270310922003D7
:1007A00010921F031092C00080911A0390E0FC0188
:1007B000E451FF4F249188529F4FFC01849188237C
:1007C00099F090E0880F991FFC01EC53FF4FA59121
:1007D000B491FC01E253FF4F859194918FB7F89447
:1007E000EC91E22BEC938FBF81E090E02091150318
:1007F000309116032230310511F090E080E04091F5
:100800001903480F592F511D80911A0390E0FC01E4
:10081000E050FF4F3491FC01E451FF4F2491FC0163
:10082000E852FF4FE491EE23D9F0332349F03330FF
:10083000C9F170F5313009F43BC0323009F43CC0E5
:10084000F0E0EE0FFF1FE253FF4FA591B4918FB779
:10085000F894EC91452BE9F520952E232C938FBF2E
:10086000809115039091160381309105A1F10297B3
:1008700009F053CF1092C50089E08093C40088E44A
:100880008093C1008EE28093C2001092C60045CFD3
:100890003730A9F03830C9F0343091F680918000BB
:1008A0008F7D03C0809180008F7780938000C8CFB8
:1008B00084B58F7784BDC4CF84B58F7DFBCF809105
:1008C000B0008F778093B000BBCF8091B0008F7D58
:1008D000F9CF2E2BC3CF1092C50083E08093C400C4
:1008E00080E98093C10086E08093C2008091C000BF
:1008F00087FF13CF8091C600F9CFE1E1F3E08EE0EE
:1009000091E0918380831382128280E092E097834A
:100910008683108682E08187138612861586148668
:1009200017861686108A118A128A138A8AE091E045
:10093000958B848B108E0895FB01DC0105900D9240
:100940000020E1F70895FC0105900020E9F780956B
:1009500090958E0F9F1F08952F923F924F925F9216
:100960006F927F928F929F92AF92BF92CF92DF92BF
:10097000EF92FF920F931F93CF93DF93CDB7DEB724
:10098000CA1BDB0B0FB6F894DEBF0FBECDBF0994B8
:100990002A88398848885F846E847D848C849B840F
:1009A000AA84B984C884DF80EE80FD800C811B811D
:1009B000AA81B981CE0FD11D0FB6F894DEBF0FBE4C
:1009C000CDBFED010895EE0FFF1F0590F491E02DCE
:1009D00009940F931F93CF93DF938230910510F406
:1009E00082E090E0E0913503F091360330E020E0C2
:1009F000B0E0A0E0309799F42115310509F44AC020
:100A0000281B390B24303105D8F58A819B8161156B
:100A1000710589F1FB0193838283FE0111C040813E
:100A200051810281138148175907E0F0481759078F
:100A300099F4109761F012960C93129713961C93E9
:100A40003296CF01DF91CF911F910F9108950093BE
:100A5000350310933603F4CF2115310551F04217B9
:100A6000530738F0A901DB019A01BD01DF01F8014C
:100A7000C1CFEF01F9CF9093360380933503CDCFEB
:100A8000FE01E20FF31F81939193225031093983C4
:100A90002883D7CF2091330330913403232B41F4A3
:100AA00020910201309103013093340320933303EA
:100AB00020910001309101012115310541F42DB73C
:100AC0003EB74091040150910501241B350BE09184
:100AD0003303F0913403E217F307A0F42E1B3F0B0E
:100AE0002817390778F0AC014E5F5F4F24173507A0
:100AF00048F04E0F5F1F50933403409333038193AC
:100B000091939FCFF0E0E0E09CCFCF93DF930097ED
:100B1000E9F0FC01329713821282A0913503B09163
:100B20003603ED0130E020E01097A1F420813181FF
:100B3000820F931F20913303309134032817390714
:100B400009F061C0F0933403E0933303DF91CF9158
:100B50000895EA01CE17DF07E8F54A815B819E011F
:100B600041155105B1F7E901FB83EA834991599198
:100B7000C40FD51FEC17FD0761F4808191810296A7
:100B8000840F951FE90199838883828193819B83D8
:100B90008A83F0E0E0E012968D919C911397009784
:100BA000B9F52D913C911197CD010296820F931FBB
:100BB00020913303309134032817390739F63097E1
:100BC00051F51092360310923503B0933403A0937D
:100BD0003303BCCFD383C28340815181840F951FDF
:100BE000C817D90761F44E5F5F4F88819981480F1C
:100BF000591F518340838A819B819383828321156E
:100C0000310509F0B0CFF0933603E09335039ECF62
:100C1000FD01DC01C0CF13821282D7CFB0E0A0E08B
:100C2000E4E1F6E00C94AE048C01009751F4CB01A2
:100C30000E94E9048C01C801CDB7DEB7E0E10C9455
:100C4000CA04FC01E60FF71F9C0122503109E2178C
:100C5000F30708F49DC0D901CD91DC911197C61717
:100C6000D70798F0C530D10530F3CE010497861729
:100C7000970708F3C61BD70B2297C193D1936D93A7
:100C80007C93CF010E948505D6CF5B01AC1ABD0ACB
:100C90004C018C0E9D1EA0913503B0913603512C52
:100CA000412CF12CE12C109731F580913303909178
:100CB00034038815990509F05CC04616570608F0FC
:100CC00058C08091000190910101009741F48DB7C7
:100CD0009EB74091040150910501841B950BE817C4
:100CE000F90708F055C0F0933403E0933303F9019A
:100CF00071836083A0CF8D919C91119712966C9017
:100D0000129713967C901397A815B90559F56C01A5
:100D100042E0C40ED11CCA14DB0420F1AC014A1914
:100D20005B09DA011296159780F062827382518313
:100D30004083D9016D937C93E114F10471F0D701E4
:100D40001396FC93EE93129776CF22968C0F9D1FED
:100D5000F90191838083F301EFCFF0933603E093A1
:100D6000350369CF4816590608F42C017D01D301DB
:100D70009ACFCB010E94E9047C01009749F0AE01B3
:100D8000B8010E94CB06C8010E948505870153CF98
:100D900010E000E050CFFB01DC0102C001900D9299
:100DA00041505040D8F70895FB01DC0101900D92AD
:0A0DB0000020E1F70895F894FFCF4A
:0E0DBA0000003703800000000000560100001A
:00000001FF
